:020000040800F2
:1000000080070020ED010008330600082B060008D9
:100010002F0600082F030008B908000800000000A0
:10002000000000000000000000000000410800087F
:1000300033030008000000003506000843080008EC
:10004000030200080302000803020008030200087C
:10005000030200080302000803020008030200086C
:10006000030200080302000803020008030200085C
:10007000030200080302000803020008030200084C
:10008000030200080302000803020008030200083C
:10009000030200080302000803020008030200082C
:1000A000030200080302000803020008030200081C
:1000B000450800084708000803020008030200087A
:1000C00003020008030200080302000803020008FC
:1000D00003020008B5080008B7080008030200087A
:1000E00003020008030200080302000803020008DC
:1000F00003020008030200080302000803020008CC
:1001000003020008030200080302000803020008BB
:1001100003020008030200080302000803020008AB
:10012000030200080302000803020008030200089B
:1001300000F002F800F03AF80AA090E8000C8244BF
:100140008344AAF10107DA4501D100F02FF8AFF29C
:10015000090EBAE80F0013F0010F18BFFB1A43F0A5
:1001600001031847E00C0000000D0000103A24BF06
:1001700078C878C1FAD8520724BF30C830C144BF0C
:1001800004680C607047000000230024002500264E
:10019000103A28BF78C1FBD8520728BF30C148BFEA
:1001A0000B6070471FB51FBD10B510BD00F086F87D
:1001B0001146FFF7F7FF00F0E9FB00F0A4F803B4E5
:1001C000FFF7F2FF03BC00F0ABF80000EFF309808B
:1001D000704780F309887047EFF30880704780F319
:1001E0000888704740BA7047C0BA7047084800474F
:1001F000FEE7FEE7FEE7FEE7FEE7FEE7FEE7FEE7D7
:10020000FEE7FEE703480449044A054B7047000037
:1002100031010008800100208007002080030020B9
:10022000800300204FF000020429C0F0128010F07B
:10023000030C00F01E80CCF1040CBCF1020F18BFBF
:1002400000F8012BA8BF20F8022BA1EB0C0100F055
:1002500010B85FEAC17C24BF00F8012B00F8012B25
:1002600048BF00F8012B70477047704770474FF048
:10027000000200B5134694469646203922BFA0E8F6
:100280000C50A0E80C50B1F12001BFF4F7AF090702
:1002900028BFA0E80C5048BF0CC05DF804EB8900F3
:1002A00028BF40F8042B08BF704748BF20F8022B36
:1002B00011F0804F18BF00F8012B7047754600F011
:1002C0002BF8AE4605006946534620F007008546E8
:1002D00018B020B5FFF796FFBDE820404FF00006AC
:1002E0004FF000074FF000084FF0000B21F007011E
:1002F000AC46ACE8C009ACE8C009ACE8C009ACE861
:10030000C0098D46704710B50446AFF30080204603
:10031000BDE81040FFF753BF004870471C010020A4
:1003200001491820ABBEFEE726000200704700BF5F
:10033000FEE7704730B5044604254FF4302000F046
:1003400089F80546042D17D10C48006940F00200D9
:100350000A49086108464461006940F040000861AC
:100360004FF4302000F076F805460448006941F665
:10037000FD71084001490861284630BD0020024057
:1003800004200B49C96801F0010109B101200EE008
:100390000749C96801F0040109B1022007E00449D6
:1003A000C96801F0100109B1032000E00420704782
:1003B000002002400348006940F0800001490861C4
:1003C00070470000002002400549096821F0100133
:1003D000034A11601146096801431160704700002B
:1003E0000020024070B504460D460426F00200F0DD
:1003F00031F80646042E11D10948006940F0010089
:10040000074908612580F00200F024F806460448F8
:10041000006941F6FE71084001490861304670BD2F
:100420000020024001460020034A106800F0380016
:100430000843106070470000002002400248034952
:100440004860034848607047230167450020024028
:10045000AB89EFCD00B502460423FFF791FF0346B9
:1004600003E0FFF78DFF0346521E012B01D1002A46
:10047000F7D102B90523184600BD000030B5034688
:10048000002013E01C5A0B4D2C60012903D12C468F
:10049000247814540CE0074C24781454054C6478E8
:1004A00015186C70841CA0B28C1EA1B20029E9D171
:1004B00000BF30BD040000202DE9F04106460C4687
:1004C00017460025FFF7BAFFC6F3090010B93046FA
:1004D000FFF730FF12E0785D0C490870781940781A
:1004E00048700A46128891B27019FFF77BFF012C01
:1004F00000D105E0A81C85B2A01E84B2002CEAD170
:1005000000BFFFF757FFBDE8F081000004000020A6
:100510002DE9F0410246002500260020002300249A
:10052000002791F803C00CF00F0591F803C00CF000
:10053000100CBCF1000F03D091F802C04CEA050585
:1005400091F800C0BCF1000F31D0146800202BE0FE
:100550004FF0010C0CFA00F3B1F800C00CEA0306EE
:100560009E4220D183004FF00F0C0CFA03F7BC43DE
:1005700005FA03FC4CEA040491F803C0BCF1280F0F
:1005800006D14FF0010C0CFA00FCC2F814C00AE0CE
:1005900091F803C0BCF1480F05D14FF0010C0CFAE3
:1005A00000FCC2F810C0401C0828D1D31460B1F878
:1005B00000C0BCF1FF0F34DD546800202EE000F1D4
:1005C000080C4FF0010808FA0CF3B1F800C00CEA6F
:1005D00003069E4221D183004FF00F0C0CFA03F763
:1005E000BC4305FA03FC4CEA040491F803C0BCF1D7
:1005F000280F05D100F1080C08FA0CF8C2F8148095
:1006000091F803C0BCF1480F07D100F1080C4FF07E
:10061000010808FA0CF8C2F81080401C0828CED354
:100620005460BDE8F0814161704700BFFEE700BF44
:10063000FEE77047704710B500F030F84FF4803097
:1006400000F084F800F0E0F80446012C24D11020DA
:10065000FFF7BAFE0220FFF7E5FE002000F06AF87F
:10066000002000F0A5F8002000F096F84FF4E0110B
:10067000200400F0AFF8012000F0A6F800BF3920F8
:1006800000F032F80028FAD0022000F0B1F800BFE4
:1006900000F048F80828FBD110BD00000F480068A2
:1006A00040F001000D490860084640680C490840C8
:1006B0000A494860084600680A4908400749086036
:1006C0000846006820F4802008600846406820F44E
:1006D000FE0048604FF41F00886070470010024021
:1006E0000000FFF8FFFFF6FE10B5014600220023D0
:1006F00000204A11012A02D1094C236806E0022A8F
:1007000002D1074C236A01E0054C636A01F01F0225
:10071000012494401C400CB1012000E0002010BDD9
:10072000001002400248406800F00C0070470000D2
:100730000010024001460020034A506820F0F000FB
:1007400008435060704700000010024011490968DA
:1007500021F480310F4A11601146096821F480218B
:100760001160B0F5803F03D0B0F5802F0ED106E0C8
:100770000849096841F48031064A116007E00549DB
:10078000096841F4A021034A116000E000BF00BFE6
:10079000704700000010024001460020034A5068E4
:1007A00020F4E060084350607047000000100240F1
:1007B00001460020034A506820F4605040EAC1001E
:1007C0005060704700100240014908667047000001
:1007D0000000424202460020044B586820F47C107E
:1007E00042EA01031843014B586070470010024071
:1007F00001460020034A506820F00300084350607F
:10080000704700000010024038B50020009000241E
:10081000002500BF3120FFF767FF05460098401C08
:1008200000900098B0F5A06F01D0002DF2D03120DB
:10083000FFF75AFF08B1012400E00024204638BD2C
:10084000704770477047704710B516480078042805
:1008500026D14FF0E020046904F0010010B104F447
:100860008030E0B100204FF0E021086188610E483F
:100870000078401C0C49087008460078042806DD02
:100880000A4800F06DF808200649087007E008489B
:100890004FF0E0214861002088610120086100BF1D
:1008A00010BD000000000020010000200010000822
:1008B000405489007047704700BFFEE70146C87882
:1008C00008B9087970470B79002203E0501D085CD5
:1008D0004340521CC8789042F8DA1846F2E700000C
:1008E00000204FF4FA7100BF0D4A128902F0010294
:1008F00022B90A1EA1F1010399B2F5D1084A9289E1
:10090000D0B24FF4FA7100BF054A128902F0010219
:1009100022B10A1EA1F1010399B2F5D1704700007E
:100920000030014080200D4991F81011002909DDA7
:100930000A4991F81011094A92F81121914201D106
:1009400040F00200054991F8131129B9034991F8C3
:10095000121109B940F001007047000008000020A2
:1009600070B50446002080F3108800BF2068064957
:100970000840B0F1005F06D165682E462068FFF799
:1009800028FCB04700BF70BD0000FE2FFFF753FEEC
:1009900000F0A6F9012080F3108800BF8DE0FFF77A
:1009A00053FF4648008900F0010000B985E0FFF7D9
:1009B00097FF0546102D0FD004DC012D3FD0042DEC
:1009C00078D164E0402D28D0FF2D73D1FFF7AAFF26
:1009D000064600F077F86EE0FFF782FF04463848DD
:1009E00090F8110136490C54084690F81101401C4A
:1009F00081F81101084690F81101882802DD0020D5
:100A000081F811012E4890F811012D4991F810112B
:100A1000884201DB00F06CF84DE0FFF761FF2849E8
:100A200081F81001084690F81001882802DB0020A8
:100A300081F810010020224981F811013BE0204893
:100A400090F813011E4991F8121188421EDA1C49D0
:100A500091F8132191F81311491C194B83F81311C4
:100A600003F18801885C00F02DF8FFF739FF054697
:100A7000134890F81301124991F81211884205DBCE
:100A800000200F4981F8130181F8120113E00C498D
:100A900091F8120100F016F80020094981F81301BD
:100AA0000648008900F0010010B1FFF719FF054664
:100AB00001E0FFE700BF00BF00BF70E7003001406A
:100AC0000800002070B504464FF4FA7507498C8180
:100AD00000BF0649098901F0020121B9291EA5F1CB
:100AE000010295B2F5D1FFF7FBFE70BD0030014069
:100AF00070B56F4890F81001062811DA6C4801466D
:100B00004968C0F88C1088306AA10A6882608A88B7
:100B10008281897981730921883880F88B10A9E056
:100B20006348FFF7CBFE0546614890F81001401E70
:100B30005F49085CA84210D008464968C0F88C108C
:100B400088305EA10A6882604A68C260097A0174CE
:100B50000B21883880F88B108CE04FF000645448EB
:100B600000796F287ED006DC4F287CD0522808D030
:100B700057287CD139E0722802D0772877D133E02A
:100B800000BF01205049087000204FF0E0210861AB
:100B90004748407904EB00444548807904EB002441
:100BA0004348C0790444424801464968C0F88C1063
:100BB000464884420DD23E48883045A10A6882608A
:100BC0004A68C260097A01740B21883880F88B105A
:100BD0004EE0374A903240212046FFF74FFC422139
:100BE000334880F88B1043E000BF0220364908707C
:100BF00000204FF0E02108612D48407904EB0044CB
:100C00002B48807904EB00242948C0790444284803
:100C100001464968C0F88C102C4884420DD2244803
:100C200088302BA10A6882604A68C260097A017420
:100C30000B21883880F88B101AE01D48C078C01E40
:100C400081B21B4A08322046FFF736FC184823A120
:100C50000988A0F89010042180F88B1008E001E0CA
:100C600001E004E000BF1948FFF77AFE18E017E042
:100C700000BF00BF0E488830FFF720FE0C4991F8F6
:100C80008B10891D0A4A88325054094890F88B000D
:100C9000C01D074981F81201002081F8130100BF2F
:100CA0000020034981F8110181F8100170BD000096
:100CB000080000206C656E206572720063686563D1
:100CC0006B20657272000000000000200010000818
:100CD00061646472206F7665720000004F4B000003
:100CE00008B54FF0E020006920F004004FF0E0214B
:100CF00008614B48806940F03C00494988610846DA
:100D0000806940F4805088610220ADF80000102016
:100D10008DF8030003208DF8020069464148FFF773
:100D2000F7FB02213F48FFF77EFCB020ADF8000042
:100D300004208DF8030003208DF8020069463A482C
:100D4000FFF7E6FB4020ADF800001C208DF8030003
:100D500003208DF8020069463348FFF7D9FB33487A
:100D6000008820F04000314908800846008820F4BF
:100D7000007008800846008820F038000880084687
:100D8000008840F0100008800846008820F08000AD
:100D900008800846008820F4006008800846008823
:100DA00020F4806008800846008820F00400088055
:100DB0000846008820F0020008800846008820F0DD
:100DC00001000880002088800846008840F040002C
:100DD0000880002016490870164800681649084027
:100DE000B0F1005F0AD104201149087013484FF098
:100DF000E021486100208861012008614FF48A7178
:100E00000F48FFF70FFA48200D4981F88800592153
:100E10000B4880F889103E2180F88A1008BD000038
:100E200000100240000C0140000801400030014069
:100E300000000020001000080000FE2F4054890030
:100E400008000020640E00080000002008000000D8
:100E50006C0100086C0E00080800002078070000F4
:0C0E6000880100080000000000000000F5
:0400000508000131BD
:00000001FF
